{
  "contractName": "Game",
  "abi": [
    {
      "constant": true,
      "inputs": [],
      "name": "gameOn",
      "outputs": [
        {
          "name": "",
          "type": "bool"
        }
      ],
      "payable": false,
      "stateMutability": "view",
      "type": "function",
      "signature": "0x2583dc87"
    },
    {
      "constant": true,
      "inputs": [
        {
          "name": "",
          "type": "address"
        }
      ],
      "name": "playerIndex",
      "outputs": [
        {
          "name": "addr",
          "type": "address"
        },
        {
          "name": "bet",
          "type": "uint256"
        },
        {
          "name": "hashOfBet",
          "type": "bytes32"
        },
        {
          "name": "messageOrigin",
          "type": "address"
        },
        {
          "name": "joined",
          "type": "bool"
        }
      ],
      "payable": false,
      "stateMutability": "view",
      "type": "function",
      "signature": "0x885c7d36"
    },
    {
      "constant": true,
      "inputs": [
        {
          "name": "num1",
          "type": "uint256"
        },
        {
          "name": "num2",
          "type": "uint256"
        },
        {
          "name": "num3",
          "type": "uint256"
        }
      ],
      "name": "t_average",
      "outputs": [
        {
          "name": "",
          "type": "int256"
        }
      ],
      "payable": false,
      "stateMutability": "pure",
      "type": "function",
      "signature": "0x87cea9d6"
    },
    {
      "constant": true,
      "inputs": [],
      "name": "canWeStart",
      "outputs": [
        {
          "name": "",
          "type": "bool"
        }
      ],
      "payable": false,
      "stateMutability": "view",
      "type": "function",
      "signature": "0x9069170a"
    },
    {
      "constant": false,
      "inputs": [
        {
          "name": "hash",
          "type": "bytes32"
        }
      ],
      "name": "joinGame",
      "outputs": [
        {
          "name": "",
          "type": "bool"
        }
      ],
      "payable": false,
      "stateMutability": "nonpayable",
      "type": "function",
      "signature": "0xbf474766"
    },
    {
      "constant": true,
      "inputs": [
        {
          "name": "addr",
          "type": "address"
        }
      ],
      "name": "amITheLastWinner",
      "outputs": [
        {
          "name": "",
          "type": "uint256"
        }
      ],
      "payable": false,
      "stateMutability": "view",
      "type": "function",
      "signature": "0x1e52a66d"
    },
    {
      "constant": false,
      "inputs": [
        {
          "name": "number",
          "type": "uint256"
        },
        {
          "name": "random",
          "type": "uint256"
        },
        {
          "name": "addr",
          "type": "address"
        }
      ],
      "name": "startTheGame",
      "outputs": [
        {
          "name": "",
          "type": "bool"
        }
      ],
      "payable": true,
      "stateMutability": "payable",
      "type": "function",
      "signature": "0xd4b54f09"
    }
  ],
  "bytecode": "0x6000805460ff1916815560e0604052608081815260a082905260c0919091526200002e90600290600362000043565b503480156200003c57600080fd5b50620000ca565b82600381019282156200008e579160200282015b828111156200008e5782518254600160a060020a031916600160a060020a0390911617825560209092019160019091019062000057565b506200009c929150620000a0565b5090565b620000c791905b808211156200009c578054600160a060020a0319168155600101620000a7565b90565b6115ef80620000da6000396000f3fe6080604052600436106100825763ffffffff7c01000000000000000000000000000000000000000000000000000000006000350416631e52a66d81146100875780632583dc87146100cc57806387cea9d6146100f5578063885c7d361461012b5780639069170a14610199578063bf474766146101ae578063d4b54f09146101d8575b600080fd5b34801561009357600080fd5b506100ba600480360360208110156100aa57600080fd5b5035600160a060020a031661020a565b60408051918252519081900360200190f35b3480156100d857600080fd5b506100e16102a8565b604080519115158252519081900360200190f35b34801561010157600080fd5b506100ba6004803603606081101561011857600080fd5b50803590602081013590604001356102b1565b34801561013757600080fd5b5061015e6004803603602081101561014e57600080fd5b5035600160a060020a0316610329565b60408051600160a060020a03968716815260208101959095528481019390935293166060830152911515608082015290519081900360a00190f35b3480156101a557600080fd5b506100e161036a565b3480156101ba57600080fd5b506100e1600480360360208110156101d157600080fd5b5035610373565b6100e1600480360360608110156101ee57600080fd5b5080359060208101359060400135600160a060020a03166105b6565b60006002810154600160a060020a03838116911614806102375750600354600160a060020a038381169116145b8061024f5750600454600160a060020a038381169116145b1561029f57600254600160a060020a031615806102755750600354600160a060020a0316155b806102895750600454600160a060020a0316155b1515610297575060026102a3565b5060016102a3565b5060005b919050565b60005460ff1681565b6000806102be858561094e565b90508015156102d257600019915050610322565b8484016102df818561094e565b91508115156102f45760001992505050610322565b8301610301816002610971565b91508115156103165760001992505050610322565b60020260098104925050505b9392505050565b60016020819052600091825260409091208054918101546002820154600390920154600160a060020a039384169391929181169060a060020a900460ff1685565b60005460ff1690565b6000805460ff1615610387575060006102a3565b60085460a060020a900460ff161515610421573360008181526001602081905260409091206005548154600160a060020a0319908116600160a060020a0392831617835560065493830193909355600754600283015560088054600390930180549094169290911691909117808355905460ff60a060020a918290041615150260a060020a60ff02199091161790556102979083906109a1565b600c5460a060020a900460ff1615156104d657600854600160a060020a031633141561044f575060006102a3565b3360008181526001602081905260409091206009548154600160a060020a0319908116600160a060020a03928316178355600a5493830193909355600b546002830155600c8054600390930180549094169290911691909117808355905460ff60a060020a918290041615150260a060020a60ff02199091161790556102979083906109da565b60105460a060020a900460ff16151561029f57600854600160a060020a031633148061050c5750600c54600160a060020a031633145b15610519575060006102a3565b336000818152600160208190526040909120600d548154600160a060020a0319908116600160a060020a03928316178355600e5493830193909355600f54600283015560108054600390930180549094169290911691909117808355905460ff60a060020a918290041615150260a060020a60ff02199091161790556105a0908390610a13565b506000805460ff191660019081179091556102a3565b600854600090600160a060020a031633148015906105df5750600c54600160a060020a03163314155b80156105f65750601054600160a060020a03163314155b1561065257600034111561064a57604051600160a060020a038316903480156108fc02916000818181858888f19350505050158015610639573d6000803e3d6000fd5b50610642610a4c565b61064a610b29565b506000610322565b61065a61036a565b151561069e57600034111561064257604051600160a060020a038316903480156108fc02916000818181858888f19350505050158015610639573d6000803e3d6000fd5b6106a6611595565b506040805160a081018252600554600160a060020a039081168252600654602083015260075492820192909252600854808316606083015260a060020a900460ff1615156080820152600c5490911633141561074757506040805160a081018252600954600160a060020a039081168252600a546020830152600b5492820192909252600c54918216606082015260a060020a90910460ff16151560808201525b601054600160a060020a03163314156107a557506040805160a081018252600d54600160a060020a039081168252600e546020830152600f5492820192909252601054918216606082015260a060020a90910460ff16151560808201525b670de0b6b3a7640000850234146108085760003411156107f657604051600160a060020a038416903480156108fc02916000818181858888f193505050501580156107f4573d6000803e3d6000fd5b505b6107fe610b29565b6000915050610322565b61081785858360400151610c2e565b151561086557600034111561085d57604051600160a060020a038416903480156108fc02916000818181858888f1935050505015801561085b573d6000803e3d6000fd5b505b6107f6610a4c565b600c54600160a060020a03163314156108a257670de0b6b3a76400008502600a5560098054600160a060020a031916600160a060020a0385161790555b600854600160a060020a03163314156108df57670de0b6b3a7640000850260065560058054600160a060020a031916600160a060020a0385161790555b601054600160a060020a031633141561091c57670de0b6b3a76400008502600e55600d8054600160a060020a031916600160a060020a0385161790555b610924610c74565b1561094357610931610cc0565b610939610b29565b6001915050610322565b506001949350505050565b60008282018381101561096557600091505061096b565b60019150505b92915050565b60008215156109825750600161096b565b82820282848281151561099157fe5b041461096557600091505061096b565b6007919091556008805460a060020a60ff0219600160a060020a03909316600160a060020a0319909116179190911660a060020a179055565b600b91909155600c805460a060020a60ff0219600160a060020a03909316600160a060020a0319909116179190911660a060020a179055565b600f919091556010805460a060020a60ff0219600160a060020a03909316600160a060020a0319909116179190911660a060020a179055565b600a5460001015610a9557600954600a54604051600160a060020a039092169181156108fc0291906000818181858888f19350505050158015610a93573d6000803e3d6000fd5b505b60065460001015610ade57600554600654604051600160a060020a039092169181156108fc0291906000818181858888f19350505050158015610adc573d6000803e3d6000fd5b505b600a5460001015610b2757600d54600e54604051600160a060020a039092169181156108fc0291906000818181858888f19350505050158015610b25573d6000803e3d6000fd5b505b565b60088054600160a060020a0390811660009081526001602081905260408083208054600160a060020a0319908116825581840185905560028083018690556003928301805474ffffffffffffffffffffffffffffffffffffffffff19908116909155600c805489168852858820805485168155808801899055808401899055850180548316905560108054909916885294872080548416815595860187905590850186905593909101805484169055600580548216905560068490556007849055855483169095556009805486169055600a839055600b839055805482169055600d8054909416909355600e819055600f81905581549092169055805460ff19169055565b6000831580610c3d5750606484115b15610c4a57506000610322565b610c53836111c6565b1515610c6157506000610322565b610c6c84848461122f565b949350505050565b6005546000908190600160a060020a031615610c8e576001015b600954600160a060020a031615610ca3576001015b600d54600160a060020a031615610cb8576001015b600314905090565b600654600a54610cd0919061094e565b1515610cdb57600080fd5b600a54600654600e54910190610cf290829061094e565b1515610cfd57600080fd5b600e54600654600a5492820192600092610d189291906102b1565b905060008113610d2757600080fd5b600654600a54600e54600092610d3f92909185611388565b90508060011415610dac5760055460028054600160a060020a0319908116600160a060020a03909316928317909155600480548216905560038054909116905560405184156108fc029085906000818181858888f19350505050158015610daa573d6000803e3d6000fd5b505b8060021415610e175760095460028054600160a060020a0319908116600160a060020a03909316928317909155600480548216905560038054909116905560405184156108fc029085906000818181858888f19350505050158015610e15573d6000803e3d6000fd5b505b8060031415610e8257600d5460028054600160a060020a0319908116600160a060020a03909316928317909155600480548216905560038054909116905560405184156108fc029085906000818181858888f19350505050158015610e80573d6000803e3d6000fd5b505b801515610f8657600554604051600160a060020a03909116906003850480156108fc02916000818181858888f19350505050158015610ec5573d6000803e3d6000fd5b50600954604051600160a060020a03909116906003850480156108fc02916000818181858888f19350505050158015610f02573d6000803e3d6000fd5b50600d54604051600160a060020a03909116906003850480156108fc02916000818181858888f19350505050158015610f3f573d6000803e3d6000fd5b5060055460028054600160a060020a03928316600160a060020a03199182161790915560095460038054918416918316919091179055600d54600480549190931691161790555b80600c141561104657600554604051600160a060020a03909116906002850480156108fc02916000818181858888f19350505050158015610fcb573d6000803e3d6000fd5b50600954604051600160a060020a03909116906002850480156108fc02916000818181858888f19350505050158015611008573d6000803e3d6000fd5b5060055460028054600160a060020a0319908116600160a060020a039384161790915560095460038054831691909316179091556004805490911690555b80600d141561110457600554604051600160a060020a03909116906002850480156108fc02916000818181858888f1935050505015801561108b573d6000803e3d6000fd5b50600d54604051600160a060020a03909116906002850480156108fc02916000818181858888f193505050501580156110c8573d6000803e3d6000fd5b5060055460028054600160a060020a03928316600160a060020a0319918216179091556003805482169055600d54600480549190931691161790555b80601714156111c157600954604051600160a060020a03909116906002850480156108fc02916000818181858888f19350505050158015611149573d6000803e3d6000fd5b50600d54604051600160a060020a03909116906002850480156108fc02916000818181858888f19350505050158015611186573d6000803e3d6000fd5b5060028054600160a060020a0319908116909155600954600380548316600160a060020a03928316179055600d546004805490931691161790555b505050565b6000806111d4606484610971565b9050606483028115806111f357506c1000000000000000000000000081115b15611203576000925050506102a3565b61120e60648261094e565b9150606402811515611225576000925050506102a3565b5060019392505050565b60008061123d606485610971565b9050801515611250576000915050610322565b6064840261125e818761094e565b915081151561127257600092505050610322565b850183600261128083611464565b6040516020018082805190602001908083835b602083106112b25780518252601f199092019160209182019101611293565b6001836020036101000a0380198251168184511680821785525050505050509050019150506040516020818303038152906040526040518082805190602001908083835b602083106113155780518252601f1990920191602091820191016112f6565b51815160209384036101000a60001901801990921691161790526040519190930194509192505080830381855afa158015611354573d6000803e3d6000fd5b5050506040513d602081101561136957600080fd5b5051141561137c57600192505050610322565b50600095945050505050565b60008061139683870361157c565b905060006113a584870361157c565b905060006113b485870361157c565b9050818310156113f257808310156113d25760019350505050610c6c565b828110156113e65760039350505050610c6c565b600d9350505050610c6c565b8282101561142e578082101561140e5760029350505050610c6c565b818110156114225760039350505050610c6c565b60179350505050610c6c565b8083101561144257600c9350505050610c6c565b828110156114565760039350505050610c6c565b506000979650505050505050565b60608115156114a7575060408051808201909152600181527f300000000000000000000000000000000000000000000000000000000000000060208201526102a3565b8160005b81156114bf57600101600a820491506114ab565b6060816040519080825280601f01601f1916602001820160405280156114ec576020820181803883390190505b50905060001982015b85156115735781516000198201917f01000000000000000000000000000000000000000000000000000000000000006030600a8a06010291849190811061153857fe5b9060200101907effffffffffffffffffffffffffffffffffffffffffffffffffffffffffffff1916908160001a905350600a860495506114f5565b50949350505050565b600080821215611591578160000390506102a3565b5090565b6040805160a0810182526000808252602082018190529181018290526060810182905260808101919091529056fea165627a7a72305820fb47a7071873053582f8d4425b7b9336494c35c88ac888acabfa80636be7e9240029",
  "source": "\r\npragma solidity ^0.5.0;\r\n\r\n\r\n\r\n/***\r\n * THE RULES OF THE GAME\r\n * 3 players pay an amount, bet_i made by player_i\r\n * t_average is defined as (2/9)*(bet1+bet2+bet3)\r\n * The player whose bet is closest to t_average gets all the money, f there is a tie the leads get the money\r\n * \r\n * HOW TO PLAY THE GAME\r\n * To enter you must chosse a number- amount of money to bet in the game - _bet\r\n * You must also choose a random number between 1 and (2**100)/100- _rand\r\n * You send joinGame((_rand*100)+_bet)\r\n * You call canWeStart() until it returns true\r\n * When it returns true you send startTheGame(_bet, _rand, _addr) where _addr is the address of the wallet, \r\n * and you pay _bet*factor with the function call\r\n * This function returns false if there was an error and true if all went fine\r\n * The contract automaticly pays the money as per the rules of the game\r\n * */\r\n\r\n\r\ncontract Game{\r\n    uint256 constant factor = 1000000000000000000;\r\n    bool public gameOn = false; //true iff the game is on- both players sent hash and are waiting for the results\r\n\r\n    struct player{\r\n        address payable addr; //the address of the wallet\r\n        uint256 bet; //the player's bets\r\n        bytes32 hashOfBet; //hash of (rand*100)+bet\r\n        address messageOrigin; //the address of the server\r\n        bool joined; // has the player joined\r\n    }\r\n    \r\n    //keeping info on which address is which player\r\n    mapping(address => player) public playerIndex; \r\n    \r\n    address[3] lastWinners = [address(0), address(0),address(0)];\r\n\r\n    player player1; \r\n    player player2;\r\n    player player3;\r\n    \r\n    //returns true if adding the numbers doesn't cause overflow\r\n    function canWeAdd(uint256 a, uint256 b) internal pure returns (bool) {\r\n        uint256 c = a + b;\r\n        if (c < a){\r\n            return false;\r\n        } \r\n        return true;\r\n    }\r\n\r\n    //returns true iff we can subtract a and b\r\n    function canWeSub(uint256 a, uint256 b) internal pure returns (bool) {\r\n        if (b > a){\r\n            return false; \r\n        }\r\n        return true;\r\n        \r\n    }\r\n\r\n    //returns true if there is no overflow when multiplying a by b\r\n    function canWeMul(uint256 a, uint256 b) internal pure returns (bool) {\r\n        if (a == 0){ \r\n            return true;\r\n        }\r\n        uint256 c = a * b;\r\n        if (c / a != b){ \r\n            return false;\r\n        }\r\n        return true;\r\n        \r\n    }\r\n\r\n    //returns the absolute value of a\r\n    function abs(int256 a) internal pure returns (uint256) {\r\n        if (a < 0){\r\n            return uint256(-a);\r\n        }\r\n        return uint256(a);\r\n    }\r\n\r\n    \r\n    //calculate (2/3) of the average of (num1, num2, num3)\r\n    //returns -1 if there was an error\r\n    function t_average(uint256 num1, uint256 num2, uint256 num3) public pure returns(int256){\r\n        bool canWe = canWeAdd(num1, num2); //making sure we can add the first two numbers\r\n        if (!canWe){ //if we cant\r\n            return -1;\r\n        }\r\n        uint256 temp = num1 + num2;\r\n        canWe = canWeAdd(temp, num3); //making sure we can add the third number\r\n        if (!canWe){ //if we cant\r\n            return -1;\r\n        }\r\n        temp = temp + num3;\r\n        canWe = canWeMul(temp, 2); \r\n        if (!canWe){\r\n            return -1;\r\n        }\r\n        temp = temp * 2; //calculate (2/9)(num1+num2+num3)\r\n        temp = temp / 9;\r\n        return int256(temp);\r\n    }\r\n\r\n\r\n    //becames true if both players sent the hash, and returns to false if someone sent an illegal request\r\n    function canWeStart() public view returns(bool){\r\n        return gameOn;\r\n    }\r\n    \r\n    //join the first player\r\n    function joinPlayer1(bytes32 hash, address addr) internal{\r\n        player1.hashOfBet = hash;\r\n        player1.messageOrigin = addr;\r\n        player1.joined = true;\r\n    }\r\n    \r\n    //join the second player\r\n    function joinPlayer2(bytes32 hash, address addr) internal{\r\n        player2.hashOfBet = hash;\r\n        player2.messageOrigin = addr;\r\n        player2.joined = true;\r\n    }\r\n    \r\n    //join the third player\r\n    function joinPlayer3(bytes32 hash, address addr) internal{\r\n        player3.hashOfBet = hash;\r\n        player3.messageOrigin = addr;\r\n        player3.joined = true;\r\n    }\r\n    \r\n//the server calls this function to add the player\r\n    //accepts the hash of (random*100)+bet\r\n    //adds the player if the game hasn't started yet\r\n    //returns true if the player joined\r\n    //returns false if there are already two player and the game is in motion\r\n    function joinGame(bytes32 hash) public returns(bool){\r\n        if (gameOn){ //the game alreaedy started\r\n            return false;\r\n        }\r\n        if (player1.joined == false) { //no players are waiting\r\n            playerIndex[msg.sender] = player1; //remember the address of the player\r\n            joinPlayer1(hash, msg.sender);\r\n            return true; //player joined\r\n        }\r\n        if (player2.joined == false){ //there is one player in the game\r\n            if (msg.sender == player1.messageOrigin){ //we make sure no two players have the same address\r\n                return false;\r\n            }\r\n            playerIndex[msg.sender] = player2; //remember the address of the player\r\n            joinPlayer2(hash, msg.sender); //join the player\r\n            return true; //the player has joined\r\n        }\r\n        if (player3.joined == false){ //there are 2 players in the game\r\n            if (msg.sender == player1.messageOrigin || msg.sender == player2.messageOrigin ){ //again making sure it has a different address\r\n                return false;\r\n            }\r\n            playerIndex[msg.sender] = player3; //remember the address of the player\r\n            joinPlayer3(hash, msg.sender); //join the player\r\n            gameOn = true; //three players are now in, the game is on\r\n            return true; //the player has joined\r\n        }\r\n        return false; //we reach here if the are already 3 players in the game, so this player couldn't join\r\n        \r\n    }\r\n\r\n\r\n    //returns 0 if all bets are equal\r\n    //returns 1 if the first player is closer\r\n    //returns 2 if the second player is closer\r\n    //returns 3 if the third player was the closest\r\n    //returns 12 if the first and second players are the closest, 13 if the first and third players are the closest\r\n    //and 23 if the second and third players are the closest\r\n    function findClosest(uint256 bet1, uint256 bet2, uint256 bet3, uint256 average) internal pure returns(uint256){\r\n\r\n        uint256 diff1 = abs(int256(bet1) - int256(average));\r\n        uint256 diff2 = abs(int256(bet2) - int256(average));\r\n        uint256 diff3 = abs(int256(bet3) - int256(average));\r\n\r\n        //find the smallest distance\r\n        if (diff1 < diff2){ \r\n            if (diff1 <  diff3){\r\n                return 1;\r\n            }\r\n            if (diff3 < diff1){\r\n                return 3;\r\n            }\r\n            return 13;\r\n        }\r\n        if (diff2 < diff1){\r\n            if (diff2 <  diff3){\r\n                return 2;\r\n            }\r\n            if (diff3 < diff2){\r\n                return 3;\r\n            }\r\n            return 23;\r\n        }\r\n        //so diff1 == diff2\r\n        if (diff1 < diff3){\r\n            return 12;\r\n        }\r\n        if (diff3 < diff1){\r\n            return 3;\r\n        }\r\n        return 0; //they are all the same\r\n    }\r\n   \r\n   \r\n    //checks if the random is too big\r\n    //returns 0 if it is too big, random * 100 if not\r\n    function isRandTooBig(uint256 random) internal pure returns(uint256){\r\n        bool canWe = canWeMul(100, random); //tries to calculate rand*100\r\n        uint256 temp =  100 * random; \r\n        if (!canWe || temp > (2**100)){\r\n            return 0;\r\n        }\r\n        canWe = canWeAdd(100, temp); //make sure we can add the bet without overflow, there shoudn't be a problem\r\n        temp =  100 * temp; \r\n        if (!canWe){ \r\n            return 0;\r\n        }\r\n        return 1;\r\n    }\r\n    \r\n    //accepts num of type uint256 and returns a string of the number\r\n    function uintToString(uint256 _num) internal pure returns (string memory _uintAsString) {\r\n        if (_num == 0) {\r\n            return \"0\";\r\n        }\r\n        uint temp = _num;\r\n        uint len;\r\n        while (temp != 0){\r\n            len++;\r\n            temp /= 10;\r\n        }\r\n        bytes memory bstr = new bytes(len);\r\n        uint index = len - 1;\r\n        while (_num != 0) {\r\n            bstr[index--] = byte(uint8(48 + _num % 10));\r\n            _num /= 10;\r\n        }\r\n        return string(bstr);\r\n    }\r\n    \r\n    //checks the hash is sha256(number + 100 * rand)\r\n    //returns false if rand is too big\r\n    function checkHash(uint256 number, uint256 random, bytes32 hash) internal pure returns(bool){\r\n        bool canWe = canWeMul(100, random);\r\n        if (!canWe){ //there was an error\r\n            return false;\r\n        }\r\n        uint256 temp = 100 * random; \r\n        canWe = canWeAdd(temp, number);\r\n        if (!canWe){\r\n            return false;\r\n        }\r\n        temp = temp + number; //adding the bet to (random*100)\r\n        if (sha256(abi.encodePacked(uintToString(temp))) == hash){ //hashing the value\r\n            return true; \r\n        }\r\n        return false;\r\n    }\r\n    \r\n    //accepts the number, the random, the hash, the address\r\n    //returns true iff- 0 < number < 101, random is of the right size, the hash is sha256(number + 100 * random)\r\n    function checkValsAreValid(uint256 number, uint256 random, bytes32 hash) internal pure returns(bool){ \r\n        if (number == 0 || number > 100){ //checks the number is in range \r\n            return false;\r\n        }\r\n        if (isRandTooBig(random) == 0){ //make sure the random is not too big\r\n            return false;\r\n        }\r\n        return checkHash(number, random, hash); //checks the hash is valid\r\n    }\r\n    \r\n   //pays the winner the money they won, returns the money the players paid if there was a tie\r\n    function payTheWinner() internal{\r\n        require(canWeAdd(player1.bet, player2.bet)); //no reason for this to fail, as both bet are between 0 and 100\r\n        uint256 amount = player1.bet + player2.bet; //all the money paid\r\n        require(canWeAdd(amount, player3.bet)); //no reason for this to fail\r\n        amount = amount + player3.bet;\r\n        \r\n        int256 ave = t_average(player1.bet, player2.bet, player3.bet); //the average\r\n        require(ave > 0); //shoudn't be a problem here\r\n        uint256 winner = findClosest(player1.bet, player2.bet, player3.bet, uint256(ave)); //we calculate the winner\r\n        \r\n        if (winner == 1){ //player 1 won, gets the money from both\r\n            lastWinners[0] = player1.addr;\r\n            lastWinners[1] = lastWinners[2] = address(0);\r\n            (player1.addr).transfer(amount);\r\n        }\r\n        if (winner == 2){ //player 2 won, gets the money from both\r\n            lastWinners[0] = player2.addr;\r\n            lastWinners[1] = lastWinners[2] = address(0);\r\n            (player2.addr).transfer(amount);\r\n        }\r\n        if (winner == 3){ //player 2 won, gets the money from both\r\n            lastWinners[0] = player3.addr;\r\n            lastWinners[1] = lastWinners[2] = address(0);\r\n            (player3.addr).transfer(amount);\r\n        }\r\n        if (winner == 0){ //all players bet the same, we return the money\r\n            (player1.addr).transfer(amount/3);\r\n            (player2.addr).transfer(amount/3);\r\n            (player3.addr).transfer(amount/3);\r\n            lastWinners[0] = player1.addr;\r\n            lastWinners[1] = player2.addr;\r\n            lastWinners[2] = player3.addr;\r\n        }\r\n        if (winner == 12){\r\n            (player1.addr).transfer(amount/2);\r\n            (player2.addr).transfer(amount/2);\r\n            lastWinners[0] = player1.addr;\r\n            lastWinners[1] = player2.addr;\r\n            lastWinners[2] = address(0);\r\n        }\r\n        if (winner == 13){\r\n            (player1.addr).transfer(amount/2);\r\n            (player3.addr).transfer(amount/2);\r\n            lastWinners[0] = player1.addr;\r\n            lastWinners[1] = address(0);\r\n            lastWinners[2] = player3.addr;\r\n        }\r\n        if (winner == 23){\r\n            (player2.addr).transfer(amount/2);\r\n            (player3.addr).transfer(amount/2);\r\n            lastWinners[0] = address(0);\r\n            lastWinners[1] = player2.addr;\r\n            lastWinners[2] = player3.addr;\r\n        }\r\n    }\r\n    \r\n    //this function returns 0 if the owner of the address didn't win the last round,\r\n    //1 if they did and 2 if there was a tie and the address belongs to one of the players who won\r\n    function amITheLastWinner(address addr) public view returns(uint256){\r\n        if (addr == lastWinners[0] || addr == lastWinners[1] || addr == lastWinners[2]){\r\n            if (!(address(0) == lastWinners[0] || address(0) == lastWinners[1] || address(0) == lastWinners[2])){\r\n                return 2;\r\n            }\r\n            return 1;\r\n        }\r\n        return 0;\r\n    }\r\n    \r\n    //checks if player is the third to join\r\n    function areEveryoneIn() internal view returns(bool){\r\n        uint256 count = 0;\r\n        if (player1.addr != address(0)){\r\n            count += 1;\r\n        }\r\n        if (player2.addr != address(0)){\r\n            count += 1;\r\n        }\r\n        if (player3.addr != address(0)){\r\n            count += 1;\r\n        }\r\n        return (count == 3);\r\n    }\r\n    \r\n    function cleanUp() internal{ //clean up after the game\r\n        delete(playerIndex[player1.messageOrigin]);\r\n        delete(playerIndex[player2.messageOrigin]);\r\n        delete(playerIndex[player3.messageOrigin]);\r\n        delete(player1);\r\n        delete(player2);\r\n        delete(player3);\r\n        delete(gameOn);\r\n    }\r\n    \r\n    function returnTheMoney() internal{ //returning the money to those who paid\r\n        if (player2.bet > 0){ //if player1 already paid\r\n            (player2.addr).transfer(player2.bet);\r\n        }\r\n        if (player1.bet > 0){ //if player 2 already paid\r\n            (player1.addr).transfer(player1.bet);\r\n        }\r\n        if (player2.bet > 0){\r\n            (player3.addr).transfer(player3.bet);\r\n        }\r\n    }\r\n    \r\n    //this function accepts the number, the random, the address of the wallet, and msg.value when called\r\n    //check all the values are valid and the hash is correct\r\n    //when the third player joined it calls the function that calculates the winner and pays them\r\n    function startTheGame(uint256 number, uint256 random, address payable addr) public payable returns(bool){\r\n        //checks the message we got is from one of our players\r\n\r\n        if (msg.sender != player1.messageOrigin && msg.sender != player2.messageOrigin && msg.sender != player3.messageOrigin){\r\n            if (msg.value > 0){\r\n                addr.transfer(msg.value); //returning the money\r\n                returnTheMoney(); //returning the money to players who paid\r\n\t\t\t\tcleanUp();\r\n            }\r\n            return false;\r\n        }\r\n        \r\n        //if there are no three players in the game yet it means one of the players tried to pay and send the bet when they shoudn't have\r\n        //the game must stop as now the bet was visible to everyone\r\n        if (!canWeStart()){ \r\n            if (msg.value > 0){\r\n                addr.transfer(msg.value); //returning the money to this player\r\n                returnTheMoney(); //returning the money to those who played \r\n            }\r\n            cleanUp(); //cleaning up\r\n            return false;\r\n        }\r\n        player memory pl = player1;\r\n        if (msg.sender == player2.messageOrigin){ //this message is from the second player\r\n            pl = player2;\r\n        }\r\n        if (msg.sender == player3.messageOrigin){ //this message is from the third player\r\n            pl = player3;\r\n        }\r\n        if (number*factor != msg.value){ //the bet was different from the amount paid, this makes the game invalid\r\n            if (msg.value > 0){\r\n                addr.transfer(msg.value); //returning the money\r\n            }\r\n            cleanUp();\r\n            return false;\r\n        }\r\n        if (checkValsAreValid(number, random, pl.hashOfBet) == false){ //one or more of the values are off, the game is invalid\r\n            if (msg.value > 0){\r\n                addr.transfer(msg.value); //returning the money\r\n            }\r\n            //we want to return money to the other player, if they paid already\r\n            returnTheMoney();\r\n            cleanUp();\r\n            return false;\r\n        }\r\n        //the values are valid\r\n        if (msg.sender == player2.messageOrigin){\r\n            player2.bet = number*factor;\r\n            player2.addr = addr;\r\n        }\r\n        if (msg.sender == player1.messageOrigin){\r\n            player1.bet = number*factor;\r\n            player1.addr = addr;\r\n        }\r\n        if (msg.sender == player3.messageOrigin){\r\n            player3.bet = number*factor;\r\n            player3.addr = addr;\r\n        }\r\n        \r\n        if(areEveryoneIn()){\r\n            payTheWinner();\r\n            cleanUp();\r\n            return true;\r\n        }\r\n        return true;\r\n    }\r\n\r\n}\r\n\r\n\r\n",
  "sourcePath": "C:/Users/Dell/Desktop/tau/sadna/try3/contracts/Game.sol",
  "compiler": {
    "name": "solc",
    "version": "0.5.0+commit.1d4f565a.Emscripten.clang"
  },
  "schemaVersion": "3.0.1",
  "updatedAt": "2021-09-01T09:20:50.219Z",
  "devdoc": {
    "methods": {}
  },
  "userdoc": {
    "methods": {},
    "notice": "*\r THE RULES OF THE GAME\r 3 players pay an amount, bet_i made by player_i\r t_average is defined as (2/9)*(bet1+bet2+bet3)\r The player whose bet is closest to t_average gets all the money, f there is a tie the leads get the money\r \r HOW TO PLAY THE GAME\r To enter you must chosse a number- amount of money to bet in the game - _bet\r You must also choose a random number between 1 and (2**100)/100- _rand\r You send joinGame((_rand*100)+_bet)\r You call canWeStart() until it returns true\r When it returns true you send startTheGame(_bet, _rand, _addr) where _addr is the address of the wallet, \r and you pay _bet*factor with the function call\r This function returns false if there was an error and true if all went fine\r The contract automaticly pays the money as per the rules of the game\r"
  }
}