{
  "contractName": "Math",
  "abi": [
    {
      "constant": true,
      "inputs": [
        {
          "name": "num1",
          "type": "uint256"
        },
        {
          "name": "num2",
          "type": "uint256"
        }
      ],
      "name": "t_average",
      "outputs": [
        {
          "name": "",
          "type": "int256"
        }
      ],
      "payable": false,
      "stateMutability": "pure",
      "type": "function"
    }
  ],
  "bytecode": "0x610164610030600b82828239805160001a6073146000811461002057610022565bfe5b5030600052607381538281f3fe73000000000000000000000000000000000000000030146080604052600436106100575763ffffffff7c0100000000000000000000000000000000000000000000000000000000600035041663d46f7eaa811461005c575b600080fd5b61007f6004803603604081101561007257600080fd5b5080359060200135610091565b60408051918252519081900360200190f35b60008061009e84846100e7565b90508015156100b2576000199150506100e1565b8383016100c0816002610108565b91508115156100d557600019925050506100e1565b60038104600202925050505b92915050565b6000828201838110156100fe5760009150506100e1565b5060019392505050565b6000821515610119575060016100e1565b82820282848281151561012857fe5b04146100fe5760009150506100e156fea165627a7a72305820582fccf8ea78230706c00c31040884c7bc8fdfac2a072fbc1cb38a2ae3ae0a020029",
  "source": "\r\npragma solidity ^0.5.0;\r\n\r\n\r\n\r\n/***\r\n * THE RULES OF THE GAME\r\n * 2 players pay an amount, bet_i made by player_i\r\n * If bet1 == bet2, both players get their money back\r\n * Else- t_average is defined as 2*(bet1+bet2)/3\r\n * The player whose bet is closest to t_average gets all the money\r\n * \r\n * HOW TO PLAY THE GAME\r\n * To enter you must chosse a number- amount of money to bet in the game - _bet\r\n * You must also choose a random umber between 1 and (2**100)/100- _rand\r\n * You send joinGame((_rand*100)+_bet)\r\n * You call canWeStart() until it returns true\r\n * When it returns true you send startTheGame(_bet, _rand, _addr) where _addr is the address of the wallet, \r\n * and you pay _bet wei with the function call\r\n * This function returns false if there was an error and true if all went fine\r\n * The contract automaticly pays the money as per the rules of the game\r\n * */\r\n\r\n\r\ncontract Game{\r\n    bool gameOn = false; //true iff the game is on- both players sent hash and are waiting for the results\r\n\r\n    struct player{\r\n        address payable addr; //the address of the wallet\r\n        uint256 bet; //the player's bets\r\n        bytes32 hashOfBet; //hash of (rand*100)+bet\r\n        address messageOrigin; //the address of the server\r\n        bool joined; // has the player joined\r\n    }\r\n    \r\n    //keeping info on which address is which player\r\n    mapping(address => player) public playerIndex; \r\n\r\n\r\n    player player1; \r\n    player player2;\r\n\r\n    //becames true if both players sent the hash, and returns to false if someone sent an illegal request\r\n    function canWeStart() public view returns(bool){\r\n        return gameOn;\r\n    }\r\n    \r\n    //join the first player\r\n    function joinPlayer1(bytes32 hash, address addr) internal{\r\n        player1.hashOfBet = hash;\r\n        player1.messageOrigin = addr;\r\n        player1.joined = true;\r\n    }\r\n    \r\n    //join the second player\r\n    function joinPlayer2(bytes32 hash, address addr) internal{\r\n        player2.hashOfBet = hash;\r\n        player2.messageOrigin = addr;\r\n        player2.joined = true;\r\n    }\r\n    \r\n    //the server calls this function to add the player\r\n    //accepts the hash of (random*100)+bet\r\n    //adds the player if the game hasn't started yet\r\n    //returns true if the player joined\r\n    //returns false if there are already two player and the game is in motion\r\n    function joinGame(bytes32 hash) public returns(bool){\r\n        //check hash is legit?\r\n        \r\n        if (gameOn){ //the game alreaedy started\r\n            return false;\r\n        }\r\n        if (player1.joined == false) { //no players are waiting\r\n            playerIndex[msg.sender] = player1; //remember the address of the player\r\n            joinPlayer1(hash, msg.sender);\r\n            return true; //player joined\r\n        }\r\n        if (player2.joined == false){ //there is one player in the game\r\n            playerIndex[msg.sender] = player2; //remember the address of the player\r\n            joinPlayer2(hash, msg.sender); //join the player\r\n            gameOn = true; //two players are now in, the game is on\r\n            return true; //the player has joined\r\n        }\r\n        return false; //we reach here if the are already 2 players in the game, so this player couldn't join\r\n        \r\n    }\r\n\r\n    //returns 0 if both bets are equal\r\n    //returns 1 if the first player is closer\r\n    //returns 2 if the second player is closer\r\n    function findClosest(uint256 bet1, uint256 bet2, uint256 average) internal pure returns(uint256){\r\n        if (bet1 == bet2){ //both bets are of a similair distance\r\n            return 0;\r\n        }\r\n        uint256 diff1 = Math.abs(int256(bet1) - int256(average));\r\n        uint256 diff2 = Math.abs(int256(bet2) - int256(average));\r\n\r\n        if (diff1 < diff2){ //find the smallest distance\r\n            return 1;\r\n        }\r\n        return 2;\r\n    }\r\n   \r\n    //checks if the random is too big\r\n    //returns 0 if it is too big, random * 100 if not\r\n    function isRandTooBig(uint256 random) internal pure returns(uint256){\r\n        bool canWe = Math.canWeMul(100, random); //tries to calculate rand*100\r\n        uint256 temp =  100 * random; \r\n        if (!canWe || temp > (2**100)){\r\n            return 0;\r\n        }\r\n        canWe = Math.canWeAdd(100, temp); //make sure we can add the bet without overflow, there shoudn't be a problem\r\n        temp =  100 * temp; \r\n        if (!canWe){ \r\n            return 0;\r\n        }\r\n        return 1;\r\n    }\r\n    \r\n    //checks the hash is sha256(number + 100 * rand)\r\n    //returns false if rand is too big\r\n    function checkHash(uint256 number, uint256 random, bytes32 hash) internal pure returns(bool){\r\n        bool canWe = Math.canWeMul(100, random);\r\n        if (!canWe){ //there was an error\r\n            return false;\r\n        }\r\n        uint256 temp = 100 * random; \r\n        canWe = Math.canWeAdd(temp, number);\r\n        if (!canWe){\r\n            return false;\r\n        }\r\n        temp = temp + number; //adding the bet to (random*100)\r\n        if (sha256(abi.encodePacked(temp)) == hash){ //hashing the value\r\n            return true; \r\n        }\r\n        return false;\r\n    }\r\n    \r\n    //accepts the number, the random, the hash, the address\r\n    //returns true iff- 0 < number < 101, random is of the right size, the hash is sha256(number + 100 * random)\r\n    function checkValsAreValid(uint256 number, uint256 random, bytes32 hash) internal pure returns(bool){ \r\n        if (number == 0 || number > 100){ //checks the number is in range \r\n            return false;\r\n        }\r\n        if (isRandTooBig(random) == 0){ //make sure the random is not too big\r\n            return false;\r\n        }\r\n        return checkHash(number, random, hash); //checks the hash is valid\r\n    }\r\n    \r\n    //pays the winner the money they won, returns the money the players paid if there was a tie\r\n    function payTheWinner() internal{\r\n        require(Math.canWeAdd(player1.bet, player2.bet)); //no reason for this to fail, as both bet are between 0 and 100\r\n        uint256 amount = player1.bet + player2.bet;\r\n        int256 ave = Math.t_average(player1.bet, player2.bet); //the average\r\n        require(ave > 0); //shoudn't be a problem here\r\n        uint256 winner = findClosest(player1.bet, player2.bet, uint256(ave)); //we calculate the winner\r\n        if (winner == 1){ //player 1 won, gets the money from boths\r\n            (player1.addr).transfer(amount);\r\n        }\r\n        if (winner == 2){ //player 2 won, gets the money from both\r\n            (player2.addr).transfer(amount);\r\n        }\r\n        if (winner == 0){ //both players bet the same, we return the money\r\n            (player1.addr).transfer(player1.bet);\r\n            (player2.addr).transfer(player2.bet);\r\n        }\r\n    }\r\n    \r\n    //checks if player is the first to join\r\n    function isFirst() internal view returns(bool){\r\n        if (player1.addr == address(0) || player2.addr == address(0)){ //if one of the address is null \r\n            return true;\r\n        }\r\n        return false;\r\n    }\r\n    \r\n    function cleanUp() internal{ //clean up after the game\r\n        delete(playerIndex[player1.messageOrigin]);\r\n        delete(playerIndex[player2.messageOrigin]);\r\n        delete(player1);\r\n        delete(player2);\r\n        delete(gameOn);\r\n    }\r\n    \r\n    //this function accepts the number, the random, the address of the wallet, and msg.value when called\r\n    //check all the values are valid and the hash is correct\r\n    //when the second player joined it calls the function that calculates the winner and pays them\r\n    function startTheGame(uint256 number, uint256 random, address payable addr) public payable returns(bool){\r\n        //checks the message we got is from one of our players\r\n        if (msg.sender != player1.messageOrigin && msg.sender != player2.messageOrigin){\r\n            addr.transfer(msg.value); //returning the money\r\n            return false;\r\n        }\r\n        \r\n        //if there are no two players in the game yet it means one of the players tried to pay and send thebet when they shoudn't have\r\n        //the game must stop as now the bet was visible to everyone\r\n        if (!canWeStart()){ \r\n            addr.transfer(msg.value); //returning the money\r\n            cleanUp(); //cleaning up\r\n            return false;\r\n        }\r\n        player memory pl = playerIndex[msg.sender];\r\n        if (number != msg.value){ //the bet was different from the amount paid, this makes the game invalid\r\n            addr.transfer(msg.value); //returning the money\r\n            cleanUp();\r\n        }\r\n        if (checkValsAreValid(number, random, pl.hashOfBet) == false){ //one or more of the values are off, the game is invalid\r\n            addr.transfer(msg.value);\r\n            cleanUp();\r\n        }\r\n        //the values are valid\r\n        pl.bet = number;\r\n        pl.addr = addr;\r\n        \r\n        if (isFirst()){\r\n            //wait 10 seconds\r\n            //if player 2 haven't joined, itsBeenTooLong\r\n        }  \r\n        if(!isFirst()){\r\n            payTheWinner();\r\n        }\r\n        //cleanUp();\r\n    }\r\n    \r\n    \r\n\r\n}\r\n\r\n//Library for math to prevent overflow and so on\r\nlibrary Math{\r\n    //returns true iff there is no overflow in the sum of a,b\r\n    function canWeAdd(uint256 a, uint256 b) internal pure returns (bool) {\r\n        uint256 c = a + b;\r\n        if (c < a){\r\n            return false;\r\n        } \r\n        return true;\r\n    }\r\n\r\n    //returns true iff we can subtract a and b\r\n    function canWeSub(uint256 a, uint256 b) internal pure returns (bool) {\r\n        if (b > a){\r\n            return false; \r\n        }\r\n        return true;\r\n        \r\n    }\r\n\r\n    //returns true if there is no overflow when multiplying a by b\r\n    function canWeMul(uint256 a, uint256 b) internal pure returns (bool) {\r\n        if (a == 0){ \r\n            return true;\r\n        }\r\n        uint256 c = a * b;\r\n        if (c / a != b){ \r\n            return false;\r\n        }\r\n        return true;\r\n        \r\n    }\r\n\r\n    //returns the absolute value of a\r\n    function abs(int256 a) internal pure returns (uint256) {\r\n        if (a < 0){\r\n            return uint256(-a);\r\n        }\r\n        return uint256(a);\r\n    }\r\n\r\n\r\n    //calculate (2/3) of the sum of num1 and num2\r\n    //returns -1 if there was an error\r\n    function t_average(uint256 num1, uint256 num2) public pure returns(int256){\r\n        bool canWe = canWeAdd(num1, num2); //making sure we can add the numbers\r\n        if (!canWe){ //if we cant\r\n            return -1;\r\n        }\r\n        uint256 temp = num1 + num2;\r\n        canWe = canWeMul(temp, 2); \r\n        if (!canWe){\r\n            return -1;\r\n        }\r\n        temp = temp / 3; //calculate (2/3)(num1+num2)\r\n        temp = temp * 2;\r\n        return int256(temp);\r\n    }\r\n}\r\n\r\n",
  "sourcePath": "C:/Users/Dell/Desktop/tau/sadna/‏‏eth-todo-list - עותק/contracts/Game.sol",
  "compiler": {
    "name": "solc",
    "version": "0.5.0+commit.1d4f565a.Emscripten.clang"
  },
  "schemaVersion": "3.0.1",
  "updatedAt": "2021-08-24T11:41:22.342Z",
  "devdoc": {
    "methods": {}
  },
  "userdoc": {
    "methods": {}
  }
}