{
  "contractName": "tGame",
  "abi": [
    {
      "constant": true,
      "inputs": [
        {
          "name": "",
          "type": "address"
        }
      ],
      "name": "playerIndex",
      "outputs": [
        {
          "name": "addr",
          "type": "address"
        },
        {
          "name": "bet",
          "type": "uint256"
        },
        {
          "name": "hashOfBet",
          "type": "bytes32"
        },
        {
          "name": "messageOrigin",
          "type": "address"
        },
        {
          "name": "joined",
          "type": "bool"
        }
      ],
      "payable": false,
      "stateMutability": "view",
      "type": "function"
    },
    {
      "constant": true,
      "inputs": [],
      "name": "canWeStart",
      "outputs": [
        {
          "name": "",
          "type": "bool"
        }
      ],
      "payable": false,
      "stateMutability": "view",
      "type": "function"
    },
    {
      "constant": false,
      "inputs": [
        {
          "name": "hash",
          "type": "bytes32"
        }
      ],
      "name": "joinGame",
      "outputs": [
        {
          "name": "",
          "type": "bool"
        }
      ],
      "payable": false,
      "stateMutability": "nonpayable",
      "type": "function"
    },
    {
      "constant": false,
      "inputs": [
        {
          "name": "number",
          "type": "uint256"
        },
        {
          "name": "random",
          "type": "uint256"
        },
        {
          "name": "addr",
          "type": "address"
        }
      ],
      "name": "startTheGame",
      "outputs": [
        {
          "name": "",
          "type": "bool"
        }
      ],
      "payable": true,
      "stateMutability": "payable",
      "type": "function"
    }
  ],
  "bytecode": "0x60806040526000805460ff1916905534801561001a57600080fd5b50610bc38061002a6000396000f3fe6080604052600436106100615763ffffffff7c0100000000000000000000000000000000000000000000000000000000600035041663885c7d3681146100665780639069170a146100d4578063bf474766146100fd578063d4b54f0914610127575b600080fd5b34801561007257600080fd5b506100996004803603602081101561008957600080fd5b5035600160a060020a0316610159565b60408051600160a060020a03968716815260208101959095528481019390935293166060830152911515608082015290519081900360a00190f35b3480156100e057600080fd5b506100e961019a565b604080519115158252519081900360200190f35b34801561010957600080fd5b506100e96004803603602081101561012057600080fd5b50356101a4565b6100e96004803603606081101561013d57600080fd5b5080359060208101359060400135600160a060020a031661034a565b60016020819052600091825260409091208054918101546002820154600390920154600160a060020a039384169391929181169060a060020a900460ff1685565b60005460ff165b90565b6000805460ff16156101b857506000610345565b60055460a060020a900460ff1615156102765733600081815260016020819052604090912060028054825473ffffffffffffffffffffffffffffffffffffffff19908116600160a060020a0392831617845560038054958501959095556004549284019290925560058054949093018054909216931692909217808355905460ff60a060020a918290041615150274ff00000000000000000000000000000000000000001990911617905561026e908390610547565b506001610345565b60095460a060020a900460ff16151561034157336000818152600160208190526040909120600654815473ffffffffffffffffffffffffffffffffffffffff19908116600160a060020a0392831617835560075493830193909355600854600283015560098054600390930180549094169290911691909117808355905460ff60a060020a918290041615150274ff00000000000000000000000000000000000000001990911617905561032b90839061059b565b506000805460ff19166001908117909155610345565b5060005b919050565b600554600090600160a060020a031633148015906103735750600954600160a060020a03163314155b156103b757604051600160a060020a038316903480156108fc02916000818181858888f193505050501580156103ad573d6000803e3d6000fd5b5060009050610540565b6103bf61019a565b151561040b57604051600160a060020a038316903480156108fc02916000818181858888f193505050501580156103fa573d6000803e3d6000fd5b506104036105ef565b506000610540565b610413610b69565b5033600090815260016020818152604092839020835160a0810185528154600160a060020a0390811682529382015492810192909252600281015493820193909352600390920154908116606083015260a060020a900460ff16151560808201523485146104b957604051600160a060020a038416903480156108fc02916000818181858888f193505050501580156104b0573d6000803e3d6000fd5b506104b96105ef565b6104c8858583604001516106bf565b151561050c57604051600160a060020a038416903480156108fc02916000818181858888f19350505050158015610503573d6000803e3d6000fd5b5061050c6105ef565b60208101859052600160a060020a0383168152610527610705565b50610530610705565b151561053e5761053e61073c565b505b9392505050565b6004919091556005805474ff000000000000000000000000000000000000000019600160a060020a0390931673ffffffffffffffffffffffffffffffffffffffff19909116179190911660a060020a179055565b6008919091556009805474ff000000000000000000000000000000000000000019600160a060020a0390931673ffffffffffffffffffffffffffffffffffffffff19909116179190911660a060020a179055565b60058054600160a060020a039081166000908152600160208190526040808320805473ffffffffffffffffffffffffffffffffffffffff19908116825581840185905560028281018690556003928301805474ffffffffffffffffffffffffffffffffffffffffff19908116909155600980549098168752938620805483168155948501869055848101869055938201805484169055835481169093558390556004839055845481169094556006805490911690556007819055600881905581549092169055805460ff19169055565b60008315806106ce5750606484115b156106db57506000610540565b6106e483610938565b15156106f257506000610540565b6106fd8484846109a1565b949350505050565b600254600090600160a060020a031615806107295750600654600160a060020a0316155b15610736575060016101a1565b50600090565b60035460075461074c9190610aae565b151561075757600080fd5b600754600354604080517fd46f7eaa00000000000000000000000000000000000000000000000000000000815260048101839052602481018490529051919092019160009173__Math__________________________________9163d46f7eaa916044808301926020929190829003018186803b1580156107d757600080fd5b505af41580156107eb573d6000803e3d6000fd5b505050506040513d602081101561080157600080fd5b505190506000811361081257600080fd5b6003546007546000916108259184610ad1565b9050806001141561086c57600254604051600160a060020a039091169084156108fc029085906000818181858888f1935050505015801561086a573d6000803e3d6000fd5b505b80600214156108b157600654604051600160a060020a039091169084156108fc029085906000818181858888f193505050501580156108af573d6000803e3d6000fd5b505b80151561093357600254600354604051600160a060020a039092169181156108fc0291906000818181858888f193505050501580156108f4573d6000803e3d6000fd5b50600654600754604051600160a060020a039092169181156108fc0291906000818181858888f19350505050158015610931573d6000803e3d6000fd5b505b505050565b600080610946606484610b20565b90506064830281158061096557506c1000000000000000000000000081115b1561097557600092505050610345565b610980606482610aae565b915060640281151561099757600092505050610345565b5060019392505050565b6000806109af606485610b20565b90508015156109c2576000915050610540565b606484026109d08187610aae565b91508115156109e457600092505050610540565b858101905083600282604051602001808281526020019150506040516020818303038152906040526040518082805190602001908083835b60208310610a3b5780518252601f199092019160209182019101610a1c565b51815160209384036101000a60001901801990921691161790526040519190930194509192505080830381855afa158015610a7a573d6000803e3d6000fd5b5050506040513d6020811015610a8f57600080fd5b50511415610aa257600192505050610540565b50600095945050505050565b600082820183811015610ac5576000915050610acb565b60019150505b92915050565b600082841415610ae357506000610540565b6000610af0838603610b50565b90506000610aff848603610b50565b905080821015610b1457600192505050610540565b50600295945050505050565b6000821515610b3157506001610acb565b828202828482811515610b4057fe5b0414610ac5576000915050610acb565b600080821215610b6557816000039050610345565b5090565b6040805160a0810182526000808252602082018190529181018290526060810182905260808101919091529056fea165627a7a723058203ce11863715daa86a96fbf73499e00c7efa4a78d421c6947c1e962b56c67f7fd0029",
  "source": "\r\npragma solidity ^0.5.0;\r\n\r\n//Library for math to prevent overflow and so on\r\nlibrary Math{\r\n    //returns true iff there is no overflow in the sum of a,b\r\n    function canWeAdd(uint256 a, uint256 b) internal pure returns (bool) {\r\n        uint256 c = a + b;\r\n        if (c < a){\r\n            return false;\r\n        } \r\n        return true;\r\n    }\r\n\r\n    //returns true iff we can subtract a and b\r\n    function canWeSub(uint256 a, uint256 b) internal pure returns (bool) {\r\n        if (b > a){\r\n            return false; \r\n        }\r\n        return true;\r\n        \r\n    }\r\n\r\n    //returns true if there is no overflow when multiplying a by b\r\n    function canWeMul(uint256 a, uint256 b) internal pure returns (bool) {\r\n        if (a == 0){ \r\n            return true;\r\n        }\r\n        uint256 c = a * b;\r\n        if (c / a != b){ \r\n            return false;\r\n        }\r\n        return true;\r\n        \r\n    }\r\n\r\n    //returns the absolute value of a\r\n    function abs(int256 a) internal pure returns (uint256) {\r\n        if (a < 0){\r\n            return uint256(-a);\r\n        }\r\n        return uint256(a);\r\n    }\r\n\r\n\r\n    //calculate (2/3) of the sum of num1 and num2\r\n    //returns -1 if there was an error\r\n    function t_average(uint256 num1, uint256 num2) public pure returns(int256){\r\n        bool canWe = canWeAdd(num1, num2); //making sure we can add the numbers\r\n        if (!canWe){ //if we cant\r\n            return -1;\r\n        }\r\n        uint256 temp = num1 + num2;\r\n        canWe = canWeMul(temp, 2); \r\n        if (!canWe){\r\n            return -1;\r\n        }\r\n        temp = temp / 3; //calculate (2/3)(num1+num2)\r\n        temp = temp * 2;\r\n        return int256(temp);\r\n    }\r\n}\r\n\r\n/***\r\n * THE RULES OF THE GAME\r\n * 2 players pay an amount, bet_i made by player_i\r\n * If bet1 == bet2, both players get their money back\r\n * Else- t_average is defined as 2*(bet1+bet2)/3\r\n * The player whose bet is closest to t_average gets all the money\r\n * \r\n * HOW TO PLAY THE GAME\r\n * To enter you must chosse a number- amount of money to bet in the game - _bet\r\n * You must also choose a random umber between 1 and (2**100)/100- _rand\r\n * You send joinGame((_rand*100)+_bet)\r\n * You call canWeStart() until it returns true\r\n * When it returns true you send startTheGame(_bet, _rand, _addr) where _addr is the address of the wallet, \r\n * and you pay _bet wei with the function call\r\n * This function returns false if there was an error and true if all went fine\r\n * The contract automaticly pays the money as per the rules of the game\r\n * */\r\n\r\n\r\ncontract tGame{\r\n    bool gameOn = false; //true iff the game is on- both players sent hash and are waiting for the results\r\n\r\n    struct player{\r\n        address payable addr; //the address of the wallet\r\n        uint256 bet; //the player's bets\r\n        bytes32 hashOfBet; //hash of (rand*100)+bet\r\n        address messageOrigin; //the address of the server\r\n        bool joined; // has the player joined\r\n    }\r\n    \r\n    //keeping info on which address is which player\r\n    mapping(address => player) public playerIndex; \r\n\r\n\r\n    player player1; \r\n    player player2;\r\n\r\n    //becames true if both players sent the hash, and returns to false if someone sent an illegal request\r\n    function canWeStart() public view returns(bool){\r\n        return gameOn;\r\n    }\r\n    \r\n    //join the first player\r\n    function joinPlayer1(bytes32 hash, address addr) internal{\r\n        player1.hashOfBet = hash;\r\n        player1.messageOrigin = addr;\r\n        player1.joined = true;\r\n    }\r\n    \r\n    //join the second player\r\n    function joinPlayer2(bytes32 hash, address addr) internal{\r\n        player2.hashOfBet = hash;\r\n        player2.messageOrigin = addr;\r\n        player2.joined = true;\r\n    }\r\n    \r\n    //the server calls this function to add the player\r\n    //accepts the hash of (random*100)+bet\r\n    //adds the player if the game hasn't started yet\r\n    //returns true if the player joined\r\n    //returns false if there are already two player and the game is in motion\r\n    function joinGame(bytes32 hash) public returns(bool){\r\n        //check hash is legit?\r\n        \r\n        if (gameOn){ //the game alreaedy started\r\n            return false;\r\n        }\r\n        if (player1.joined == false) { //no players are waiting\r\n            playerIndex[msg.sender] = player1; //remember the address of the player\r\n            joinPlayer1(hash, msg.sender);\r\n            return true; //player joined\r\n        }\r\n        if (player2.joined == false){ //there is one player in the game\r\n            playerIndex[msg.sender] = player2; //remember the address of the player\r\n            joinPlayer2(hash, msg.sender); //join the player\r\n            gameOn = true; //two players are now in, the game is on\r\n            return true; //the player has joined\r\n        }\r\n        return false; //we reach here if the are already 2 players in the game, so this player couldn't join\r\n        \r\n    }\r\n\r\n    //returns 0 if both bets are equal\r\n    //returns 1 if the first player is closer\r\n    //returns 2 if the second player is closer\r\n    function findClosest(uint256 bet1, uint256 bet2, uint256 average) internal pure returns(uint256){\r\n        if (bet1 == bet2){ //both bets are of a similair distance\r\n            return 0;\r\n        }\r\n        uint256 diff1 = Math.abs(int256(bet1) - int256(average));\r\n        uint256 diff2 = Math.abs(int256(bet2) - int256(average));\r\n\r\n        if (diff1 < diff2){ //find the smallest distance\r\n            return 1;\r\n        }\r\n        return 2;\r\n    }\r\n   \r\n    //checks if the random is too big\r\n    //returns 0 if it is too big, random * 100 if not\r\n    function isRandTooBig(uint256 random) internal pure returns(uint256){\r\n        bool canWe = Math.canWeMul(100, random); //tries to calculate rand*100\r\n        uint256 temp =  100 * random; \r\n        if (!canWe || temp > (2**100)){\r\n            return 0;\r\n        }\r\n        canWe = Math.canWeAdd(100, temp); //make sure we can add the bet without overflow, there shoudn't be a problem\r\n        temp =  100 * temp; \r\n        if (!canWe){ \r\n            return 0;\r\n        }\r\n        return 1;\r\n    }\r\n    \r\n    //checks the hash is sha256(number + 100 * rand)\r\n    //returns false if rand is too big\r\n    function checkHash(uint256 number, uint256 random, bytes32 hash) internal pure returns(bool){\r\n        bool canWe = Math.canWeMul(100, random);\r\n        if (!canWe){ //there was an error\r\n            return false;\r\n        }\r\n        uint256 temp = 100 * random; \r\n        canWe = Math.canWeAdd(temp, number);\r\n        if (!canWe){\r\n            return false;\r\n        }\r\n        temp = temp + number; //adding the bet to (random*100)\r\n        if (sha256(abi.encodePacked(temp)) == hash){ //hashing the value\r\n            return true; \r\n        }\r\n        return false;\r\n    }\r\n    \r\n    //accepts the number, the random, the hash, the address\r\n    //returns true iff- 0 < number < 101, random is of the right size, the hash is sha256(number + 100 * random)\r\n    function checkValsAreValid(uint256 number, uint256 random, bytes32 hash) internal pure returns(bool){ \r\n        if (number == 0 || number > 100){ //checks the number is in range \r\n            return false;\r\n        }\r\n        if (isRandTooBig(random) == 0){ //make sure the random is not too big\r\n            return false;\r\n        }\r\n        return checkHash(number, random, hash); //checks the hash is valid\r\n    }\r\n    \r\n    //pays the winner the money they won, returns the money the players paid if there was a tie\r\n    function payTheWinner() internal{\r\n        require(Math.canWeAdd(player1.bet, player2.bet)); //no reason for this to fail, as both bet are between 0 and 100\r\n        uint256 amount = player1.bet + player2.bet;\r\n        int256 ave = Math.t_average(player1.bet, player2.bet); //the average\r\n        require(ave > 0); //shoudn't be a problem here\r\n        uint256 winner = findClosest(player1.bet, player2.bet, uint256(ave)); //we calculate the winner\r\n        if (winner == 1){ //player 1 won, gets the money from boths\r\n            (player1.addr).transfer(amount);\r\n        }\r\n        if (winner == 2){ //player 2 won, gets the money from both\r\n            (player2.addr).transfer(amount);\r\n        }\r\n        if (winner == 0){ //both players bet the same, we return the money\r\n            (player1.addr).transfer(player1.bet);\r\n            (player2.addr).transfer(player2.bet);\r\n        }\r\n    }\r\n    \r\n    //checks if player is the first to join\r\n    function isFirst() internal view returns(bool){\r\n        if (player1.addr == address(0) || player2.addr == address(0)){ //if one of the address is null \r\n            return true;\r\n        }\r\n        return false;\r\n    }\r\n    \r\n    function cleanUp() internal{ //clean up after the game\r\n        delete(playerIndex[player1.messageOrigin]);\r\n        delete(playerIndex[player2.messageOrigin]);\r\n        delete(player1);\r\n        delete(player2);\r\n        delete(gameOn);\r\n    }\r\n    \r\n    //this function accepts the number, the random, the address of the wallet, and msg.value when called\r\n    //check all the values are valid and the hash is correct\r\n    //when the second player joined it calls the function that calculates the winner and pays them\r\n    function startTheGame(uint256 number, uint256 random, address payable addr) public payable returns(bool){\r\n        //checks the message we got is from one of our players\r\n        if (msg.sender != player1.messageOrigin && msg.sender != player2.messageOrigin){\r\n            addr.transfer(msg.value); //returning the money\r\n            return false;\r\n        }\r\n        \r\n        //if there are no two players in the game yet it means one of the players tried to pay and send thebet when they shoudn't have\r\n        //the game must stop as now the bet was visible to everyone\r\n        if (!canWeStart()){ \r\n            addr.transfer(msg.value); //returning the money\r\n            cleanUp(); //cleaning up\r\n            return false;\r\n        }\r\n        player memory pl = playerIndex[msg.sender];\r\n        if (number != msg.value){ //the bet was different from the amount paid, this makes the game invalid\r\n            addr.transfer(msg.value); //returning the money\r\n            cleanUp();\r\n        }\r\n        if (checkValsAreValid(number, random, pl.hashOfBet) == false){ //one or more of the values are off, the game is invalid\r\n            addr.transfer(msg.value);\r\n            cleanUp();\r\n        }\r\n        //the values are valid\r\n        pl.bet = number;\r\n        pl.addr = addr;\r\n        \r\n        if (isFirst()){\r\n            //wait 10 seconds\r\n            //if player 2 haven't joined, itsBeenTooLong\r\n        }  \r\n        if(!isFirst()){\r\n            payTheWinner();\r\n        }\r\n        //cleanUp();\r\n    }\r\n    \r\n    \r\n\r\n}\r\n\r\n",
  "sourcePath": "C:/Users/Dell/Desktop/tau/sadna/‏‏eth-todo-list - עותק/contracts/curr.sol",
  "compiler": {
    "name": "solc",
    "version": "0.5.0+commit.1d4f565a.Emscripten.clang"
  },
  "schemaVersion": "3.0.1",
  "updatedAt": "2021-08-24T11:29:21.455Z",
  "devdoc": {
    "methods": {}
  },
  "userdoc": {
    "methods": {},
    "notice": "*\r THE RULES OF THE GAME\r 2 players pay an amount, bet_i made by player_i\r If bet1 == bet2, both players get their money back\r Else- t_average is defined as 2*(bet1+bet2)/3\r The player whose bet is closest to t_average gets all the money\r \r HOW TO PLAY THE GAME\r To enter you must chosse a number- amount of money to bet in the game - _bet\r You must also choose a random umber between 1 and (2**100)/100- _rand\r You send joinGame((_rand*100)+_bet)\r You call canWeStart() until it returns true\r When it returns true you send startTheGame(_bet, _rand, _addr) where _addr is the address of the wallet, \r and you pay _bet wei with the function call\r This function returns false if there was an error and true if all went fine\r The contract automaticly pays the money as per the rules of the game\r"
  }
}